{
  "contractName": "CeybitsICO",
  "abi": [
    {
      "constant": true,
      "inputs": [],
      "name": "ICO",
      "outputs": [
        {
          "name": "tokens",
          "type": "uint256"
        },
        {
          "name": "startDate",
          "type": "uint256"
        },
        {
          "name": "finished",
          "type": "bool"
        }
      ],
      "payable": false,
      "stateMutability": "view",
      "type": "function"
    },
    {
      "constant": true,
      "inputs": [],
      "name": "rate",
      "outputs": [
        {
          "name": "",
          "type": "uint256"
        }
      ],
      "payable": false,
      "stateMutability": "view",
      "type": "function"
    },
    {
      "constant": true,
      "inputs": [],
      "name": "weiRaised",
      "outputs": [
        {
          "name": "",
          "type": "uint256"
        }
      ],
      "payable": false,
      "stateMutability": "view",
      "type": "function"
    },
    {
      "constant": true,
      "inputs": [],
      "name": "tokensSold",
      "outputs": [
        {
          "name": "",
          "type": "uint256"
        }
      ],
      "payable": false,
      "stateMutability": "view",
      "type": "function"
    },
    {
      "constant": false,
      "inputs": [],
      "name": "renounceOwnership",
      "outputs": [],
      "payable": false,
      "stateMutability": "nonpayable",
      "type": "function"
    },
    {
      "constant": true,
      "inputs": [],
      "name": "owner",
      "outputs": [
        {
          "name": "",
          "type": "address"
        }
      ],
      "payable": false,
      "stateMutability": "view",
      "type": "function"
    },
    {
      "constant": true,
      "inputs": [],
      "name": "stage",
      "outputs": [
        {
          "name": "",
          "type": "uint256"
        }
      ],
      "payable": false,
      "stateMutability": "view",
      "type": "function"
    },
    {
      "constant": false,
      "inputs": [
        {
          "name": "newOwner",
          "type": "address"
        }
      ],
      "name": "transferOwnership",
      "outputs": [],
      "payable": false,
      "stateMutability": "nonpayable",
      "type": "function"
    },
    {
      "constant": true,
      "inputs": [],
      "name": "token",
      "outputs": [
        {
          "name": "",
          "type": "address"
        }
      ],
      "payable": false,
      "stateMutability": "view",
      "type": "function"
    },
    {
      "inputs": [
        {
          "name": "_tokenAddress",
          "type": "address"
        }
      ],
      "payable": false,
      "stateMutability": "nonpayable",
      "type": "constructor"
    },
    {
      "payable": true,
      "stateMutability": "payable",
      "type": "fallback"
    },
    {
      "anonymous": false,
      "inputs": [
        {
          "indexed": true,
          "name": "purchaser",
          "type": "address"
        },
        {
          "indexed": true,
          "name": "beneficiary",
          "type": "address"
        },
        {
          "indexed": false,
          "name": "value",
          "type": "uint256"
        },
        {
          "indexed": false,
          "name": "amount",
          "type": "uint256"
        }
      ],
      "name": "TokenPurchase",
      "type": "event"
    },
    {
      "anonymous": false,
      "inputs": [
        {
          "indexed": false,
          "name": "tokens",
          "type": "uint256"
        },
        {
          "indexed": false,
          "name": "startDate",
          "type": "uint256"
        }
      ],
      "name": "StageStarted",
      "type": "event"
    },
    {
      "anonymous": false,
      "inputs": [
        {
          "indexed": false,
          "name": "time",
          "type": "uint256"
        }
      ],
      "name": "StageFinished",
      "type": "event"
    },
    {
      "anonymous": false,
      "inputs": [
        {
          "indexed": true,
          "name": "previousOwner",
          "type": "address"
        }
      ],
      "name": "OwnershipRenounced",
      "type": "event"
    },
    {
      "anonymous": false,
      "inputs": [
        {
          "indexed": true,
          "name": "previousOwner",
          "type": "address"
        },
        {
          "indexed": true,
          "name": "newOwner",
          "type": "address"
        }
      ],
      "name": "OwnershipTransferred",
      "type": "event"
    },
    {
      "constant": false,
      "inputs": [
        {
          "name": "_tokens",
          "type": "uint256"
        },
        {
          "name": "_startDate",
          "type": "uint256"
        }
      ],
      "name": "startPhase",
      "outputs": [],
      "payable": false,
      "stateMutability": "nonpayable",
      "type": "function"
    },
    {
      "constant": false,
      "inputs": [
        {
          "name": "_beneficiary",
          "type": "address"
        }
      ],
      "name": "buyTokens",
      "outputs": [],
      "payable": true,
      "stateMutability": "payable",
      "type": "function"
    },
    {
      "constant": true,
      "inputs": [],
      "name": "crowdSaleStatus",
      "outputs": [
        {
          "name": "",
          "type": "string"
        }
      ],
      "payable": false,
      "stateMutability": "view",
      "type": "function"
    }
  ],
  "bytecode": "0x60806040526064600155600060045534801561001a57600080fd5b506040516020806111fd83398101806040528101908080519060200190929190505050336000806101000a81548173ffffffffffffffffffffffffffffffffffffffff021916908373ffffffffffffffffffffffffffffffffffffffff16021790555060008173ffffffffffffffffffffffffffffffffffffffff16141515156100a357600080fd5b80600560006101000a81548173ffffffffffffffffffffffffffffffffffffffff021916908373ffffffffffffffffffffffffffffffffffffffff160217905550600560009054906101000a900473ffffffffffffffffffffffffffffffffffffffff1673ffffffffffffffffffffffffffffffffffffffff166379af8380306040518263ffffffff167c0100000000000000000000000000000000000000000000000000000000028152600401808273ffffffffffffffffffffffffffffffffffffffff1673ffffffffffffffffffffffffffffffffffffffff168152602001915050600060405180830381600087803b1580156101a157600080fd5b505af11580156101b5573d6000803e3d6000fd5b5050505050611034806101c96000396000f3006080604052600436106100ba576000357c0100000000000000000000000000000000000000000000000000000000900463ffffffff168063273ba6bb146100c55780632c4e722e146101025780634042b66f1461012d578063518ab2a814610158578063715018a6146101835780638da5cb5b1461019a578063a218fd36146101f1578063c040e6b814610228578063d12f693814610253578063ec8ac4d8146102e3578063f2fde38b14610319578063fc0c546a1461035c575b6100c3336103b3565b005b3480156100d157600080fd5b506100da610478565b6040518084815260200183815260200182151515158152602001935050505060405180910390f35b34801561010e57600080fd5b5061011761049d565b6040518082815260200191505060405180910390f35b34801561013957600080fd5b506101426104a3565b6040518082815260200191505060405180910390f35b34801561016457600080fd5b5061016d6104a9565b6040518082815260200191505060405180910390f35b34801561018f57600080fd5b506101986104af565b005b3480156101a657600080fd5b506101af6105b1565b604051808273ffffffffffffffffffffffffffffffffffffffff1673ffffffffffffffffffffffffffffffffffffffff16815260200191505060405180910390f35b3480156101fd57600080fd5b5061022660048036038101908080359060200190929190803590602001909291905050506105d6565b005b34801561023457600080fd5b5061023d6108a0565b6040518082815260200191505060405180910390f35b34801561025f57600080fd5b506102686108a6565b6040518080602001828103825283818151815260200191508051906020019080838360005b838110156102a857808201518184015260208101905061028d565b50505050905090810190601f1680156102d55780820380516001836020036101000a031916815260200191505b509250505060405180910390f35b610317600480360381019080803573ffffffffffffffffffffffffffffffffffffffff1690602001909291905050506103b3565b005b34801561032557600080fd5b5061035a600480360381019080803573ffffffffffffffffffffffffffffffffffffffff169060200190929190505050610a4c565b005b34801561036857600080fd5b50610371610ba1565b604051808273ffffffffffffffffffffffffffffffffffffffff1673ffffffffffffffffffffffffffffffffffffffff16815260200191505060405180910390f35b6000803491506103c38383610bc7565b6103cc82610c50565b905080600660000154101515156103e257600080fd5b6103ec8382610c90565b8273ffffffffffffffffffffffffffffffffffffffff163373ffffffffffffffffffffffffffffffffffffffff167f623b3804fa71d67900d064613da8f94b9617215ee90799290593e1745087ad188484604051808381526020018281526020019250505060405180910390a361046281610c9e565b61046a610d41565b61047382610dab565b505050565b60068060000154908060010154908060020160009054906101000a900460ff16905083565b60015481565b60025481565b60035481565b6000809054906101000a900473ffffffffffffffffffffffffffffffffffffffff1673ffffffffffffffffffffffffffffffffffffffff163373ffffffffffffffffffffffffffffffffffffffff1614151561050a57600080fd5b6000809054906101000a900473ffffffffffffffffffffffffffffffffffffffff1673ffffffffffffffffffffffffffffffffffffffff167ff8df31144d9c2f0f6b59d69b8b98abd5459d07f2742c4df920b25aae33c6482060405160405180910390a260008060006101000a81548173ffffffffffffffffffffffffffffffffffffffff021916908373ffffffffffffffffffffffffffffffffffffffff160217905550565b6000809054906101000a900473ffffffffffffffffffffffffffffffffffffffff1681565b6000809054906101000a900473ffffffffffffffffffffffffffffffffffffffff1673ffffffffffffffffffffffffffffffffffffffff163373ffffffffffffffffffffffffffffffffffffffff1614151561063157600080fd5b600560009054906101000a900473ffffffffffffffffffffffffffffffffffffffff1673ffffffffffffffffffffffffffffffffffffffff166370a08231306040518263ffffffff167c0100000000000000000000000000000000000000000000000000000000028152600401808273ffffffffffffffffffffffffffffffffffffffff1673ffffffffffffffffffffffffffffffffffffffff168152602001915050602060405180830381600087803b1580156106ee57600080fd5b505af1158015610702573d6000803e3d6000fd5b505050506040513d602081101561071857600080fd5b8101908080519060200190929190505050821115151561073757600080fd5b42811015151561074657600080fd5b600060045414156107ca57606060405190810160405280838152602001828152602001600015158152506006600082015181600001556020820151816001015560408201518160020160006101000a81548160ff0219169083151502179055509050506107bf6001600454610dc990919063ffffffff16565b60048190555061085d565b600660020160009054906101000a900460ff1615156107e857600080fd5b606060405190810160405280838152602001828152602001600015158152506006600082015181600001556020820151816001015560408201518160020160006101000a81548160ff0219169083151502179055509050506108566001600454610dc990919063ffffffff16565b6004819055505b7f071ebc7d65773fa3f2de0032649f041750dd494c2fc2a3ea9f665fc88d7f77ae8282604051808381526020018281526020019250505060405180910390a15050565b60045481565b6060600454600014156108f0576040805190810160405280601781526020017f49434f20646f6573206e6f74207374617274207965742e0000000000000000008152509050610a49565b60045460011415610938576040805190810160405280600c81526020017f507269766174652073616c6500000000000000000000000000000000000000008152509050610a49565b60045460021415610980576040805190810160405280600881526020017f5072652073616c650000000000000000000000000000000000000000000000008152509050610a49565b600454600314156109c8576040805190810160405280600f81526020017f49434f20666972737420706861736500000000000000000000000000000000008152509050610a49565b60045460041415610a10576040805190810160405280601081526020017f49434f207365636f6e64207068617365000000000000000000000000000000008152509050610a49565b6040805190810160405280601381526020017f43726f776473616c652066696e6973686564210000000000000000000000000081525090505b90565b6000809054906101000a900473ffffffffffffffffffffffffffffffffffffffff1673ffffffffffffffffffffffffffffffffffffffff163373ffffffffffffffffffffffffffffffffffffffff16141515610aa757600080fd5b600073ffffffffffffffffffffffffffffffffffffffff168173ffffffffffffffffffffffffffffffffffffffff1614151515610ae357600080fd5b8073ffffffffffffffffffffffffffffffffffffffff166000809054906101000a900473ffffffffffffffffffffffffffffffffffffffff1673ffffffffffffffffffffffffffffffffffffffff167f8be0079c531659141344cd1fd0a4f28419497f9722a3daafe3b4186f6b6457e060405160405180910390a3806000806101000a81548173ffffffffffffffffffffffffffffffffffffffff021916908373ffffffffffffffffffffffffffffffffffffffff16021790555050565b600560009054906101000a900473ffffffffffffffffffffffffffffffffffffffff1681565b4260066001015411151515610bdb57600080fd5b60001515600660020160009054906101000a900460ff161515141515610c0057600080fd5b600073ffffffffffffffffffffffffffffffffffffffff168273ffffffffffffffffffffffffffffffffffffffff1614151515610c3c57600080fd5b60008114151515610c4c57600080fd5b5050565b600080610c6860015484610de590919063ffffffff16565b9050610c85610c7682610e1d565b82610dc990919063ffffffff16565b905080915050919050565b610c9a8282610ed4565b5050565b610cb381600354610dc990919063ffffffff16565b600381905550610cd181600660000154610fd990919063ffffffff16565b60066000018190555060006006600001541415610d3e576001600660020160006101000a81548160ff0219169083151502179055507f0ccc5ba6ec689e598296300fe973143074a851339dfe62903b60525adcbaad2a426040518082815260200191505060405180910390a15b50565b6000809054906101000a900473ffffffffffffffffffffffffffffffffffffffff1673ffffffffffffffffffffffffffffffffffffffff166108fc349081150290604051600060405180830381858888f19350505050158015610da8573d6000803e3d6000fd5b50565b610dc081600254610dc990919063ffffffff16565b60028190555050565b60008183019050828110151515610ddc57fe5b80905092915050565b600080831415610df85760009050610e17565b8183029050818382811515610e0957fe5b04141515610e1357fe5b8090505b92915050565b600060016004541415610e5857610e516064610e43604185610de590919063ffffffff16565b610ff290919063ffffffff16565b9050610ecf565b60026004541415610e9157610e8a6064610e7c602d85610de590919063ffffffff16565b610ff290919063ffffffff16565b9050610ecf565b60036004541415610eca57610ec360c8610eb5601785610de590919063ffffffff16565b610ff290919063ffffffff16565b9050610ecf565b600090505b919050565b600560009054906101000a900473ffffffffffffffffffffffffffffffffffffffff1673ffffffffffffffffffffffffffffffffffffffff1663a9059cbb83836040518363ffffffff167c0100000000000000000000000000000000000000000000000000000000028152600401808373ffffffffffffffffffffffffffffffffffffffff1673ffffffffffffffffffffffffffffffffffffffff16815260200182815260200192505050602060405180830381600087803b158015610f9957600080fd5b505af1158015610fad573d6000803e3d6000fd5b505050506040513d6020811015610fc357600080fd5b8101908080519060200190929190505050505050565b6000828211151515610fe757fe5b818303905092915050565b60008183811515610fff57fe5b049050929150505600a165627a7a72305820f533dd22ce3d6330fd999c5107e85f413416642b187e178832d73428a9c367b10029",
  "source": "pragma solidity ^0.4.23;\r\n\r\nimport \"./CeybitsToken.sol\";\r\n\r\n/**\r\n * @title Ceybits project crowdsale smart contract\r\n */\r\ncontract CeybitsICO is Ownable {\r\n    using SafeMath for uint256;\r\n\r\n    uint256 public rate = 100; // 1 ETH = 100 CYBT\r\n    uint256 public weiRaised; \r\n    uint256 public tokensSold; \r\n    \r\n    uint256 public stage = 0;\r\n\r\n    CeybitsToken public token; // The token which being sold\r\n    \r\n    event TokenPurchase(address indexed purchaser, address indexed beneficiary, uint256 value, uint256 amount);\r\n    event StageStarted(uint256 tokens, uint256 startDate);\r\n    event StageFinished(uint256 time);\r\n    \r\n    struct Ico {\r\n        uint256 tokens;    // Tokens in crowdsale\r\n        uint256 startDate; // Date when crowsale will be starting, after its starting that property will be the 0\r\n        bool finished;\r\n    }\r\n\r\n    Ico public ICO;\r\n\r\n\r\n    /**\r\n     * @dev Constructor\r\n    */\r\n    constructor(address _tokenAddress) Ownable() public {\r\n        require(_tokenAddress != 0x0);\r\n        \r\n        token = CeybitsToken(_tokenAddress);\r\n        token.addCrowdsaleContract(this);\r\n    }\r\n    \r\n    /**\r\n     * @dev Start crowdsale phase\r\n    */\r\n    function startPhase(uint256 _tokens, uint256 _startDate) public onlyOwner {\r\n        require(_tokens <= token.balanceOf(this));\r\n        require(_startDate >= now);\r\n        \r\n        if(stage == 0){\r\n            ICO = Ico(_tokens, _startDate, false);\r\n            stage = stage.add(1);\r\n        } else {\r\n            require(ICO.finished);\r\n            ICO = Ico(_tokens, _startDate, false);\r\n            stage = stage.add(1);\r\n        }\r\n\r\n        emit StageStarted(_tokens, _startDate);\r\n    }\r\n\r\n    /**\r\n     * @dev fallback function\r\n    */\r\n    function () external payable {\r\n        buyTokens(msg.sender);\r\n    }\r\n    \r\n    /**\r\n     * @dev low level token purchase ***DO NOT OVERRIDE***\r\n     * @param _beneficiary Address performing the token purchase\r\n    */\r\n    function buyTokens(address _beneficiary) public payable {     \r\n        uint256 weiAmount = msg.value;\r\n        _preValidatePurchase(_beneficiary, weiAmount);\r\n    \r\n        // calculate token amount to be created\r\n        uint256 tokens = _getTokenAmount(weiAmount);\r\n        require(ICO.tokens >= tokens); \r\n    \r\n        _processPurchase(_beneficiary, tokens);\r\n        emit TokenPurchase( msg.sender, _beneficiary, weiAmount, tokens);\r\n    \r\n        _updatePurchasingState(tokens);\r\n    \r\n        _forwardFunds();\r\n        _postValidatePurchase(weiAmount);\r\n    }\r\n  \r\n    /** \r\n     * @dev Override to extend the way in which ether is converted to tokens.\r\n     * @param _weiAmount Value in wei to be converted into tokens\r\n     * @return Number of tokens that can be purchased with the specified _weiAmount\r\n    */\r\n    function _getTokenAmount(uint256 _weiAmount) internal view returns (uint256) {\r\n        uint256 tokens =  _weiAmount.mul(rate);\r\n        tokens = tokens.add(_calculateBonus(tokens));\r\n\r\n        return tokens;\r\n    }\r\n    \r\n    /**\r\n     * @dev Calulate bonus size for each stage\r\n     * @param _amount Amount, which we need to calculate\r\n    */\r\n    function _calculateBonus(uint256 _amount) internal view returns(uint256) {        \r\n        if (stage == 1) {\r\n            return _amount.mul(65).div(100);  // 65% bonus for private sale\r\n        } \r\n        else if (stage == 2) {\r\n            return  _amount.mul(45).div(100);  // 45% bonus for pre-sale\r\n        }\r\n        else if (stage == 3) {\r\n            return  _amount.mul(23).div(200);  // 11.5% bonus for ICO 1st phase\r\n        }\r\n\r\n        return 0;\r\n    }\r\n\r\n    /**\r\n     * @dev Validation of an incoming purchase. Use require statements to revert state when conditions are not met. Use super to concatenate validations.\r\n     * @param _beneficiary Address performing the token purchase\r\n     * @param _weiAmount Value in wei involved in the purchase\r\n    */\r\n    function _preValidatePurchase(address _beneficiary, uint256 _weiAmount) internal view {\r\n        require(ICO.startDate <= now);\r\n        require(ICO.finished == false);\r\n        require(_beneficiary != address(0));\r\n        require(_weiAmount != 0);\r\n    }\r\n  \r\n    /**\r\n     * @dev Executed when a purchase has been validated and is ready to be executed. Not necessarily emits/sends tokens.\r\n     * @param _beneficiary Address receiving the tokens\r\n     * @param _tokenAmount Number of tokens to be purchased\r\n    */\r\n    function _processPurchase(address _beneficiary, uint256 _tokenAmount) internal {\r\n        _deliverTokens(_beneficiary, _tokenAmount);\r\n    }\r\n  \r\n    /**\r\n     * @dev Source of tokens. Override this method to modify the way in which the crowdsale ultimately gets and sends its tokens.\r\n     * @param _beneficiary Address performing the token purchase\r\n     * @param _tokenAmount Number of tokens to be emitted\r\n    */\r\n    function _deliverTokens(address _beneficiary, uint256 _tokenAmount) internal {\r\n        token.transfer(_beneficiary, _tokenAmount);\r\n    }\r\n    \r\n    /** \r\n     * @dev Override for extensions that require an internal state to check for validity (current user contributions, etc.)\r\n     * @param _tokens Tokens which are purchased\r\n    */\r\n    function _updatePurchasingState(uint256 _tokens) internal {\r\n        tokensSold = tokensSold.add(_tokens);\r\n        ICO.tokens = ICO.tokens.sub(_tokens);\r\n\r\n        if(ICO.tokens == 0) {\r\n            ICO.finished = true;\r\n            emit StageFinished(now);\r\n        }\r\n    }\r\n  \r\n    /**\r\n     * @dev Determines how ETH is stored/forwarded on purchases.\r\n    */\r\n    function _forwardFunds() internal {\r\n        owner.transfer(msg.value);\r\n    }\r\n    \r\n    /**\r\n     * @dev Validation of an executed purchase. Observe state and use revert statements to undo rollback when valid conditions are not met.\r\n     * @param _weiAmount Value in wei involved in the purchase\r\n    */\r\n    function _postValidatePurchase(uint256 _weiAmount) internal {      \r\n        weiRaised = weiRaised.add(_weiAmount);\r\n    }\r\n    \r\n    /**\r\n     * @dev Get crowdsale current status (string)\r\n    */\r\n    function crowdSaleStatus() public constant returns(string) {\r\n        if (0 == stage) {\r\n            return \"ICO does not start yet.\";\r\n        }\r\n        else if (1 == stage) {\r\n            return \"Private sale\";\r\n        }\r\n        else if(2 == stage) {\r\n            return \"Pre sale\";\r\n        }\r\n        else if (3 == stage) {\r\n            return \"ICO first phase\";\r\n        }\r\n        else if (4 == stage) {\r\n            return \"ICO second phase\";\r\n        }\r\n\r\n        return \"Crowdsale finished!\";\r\n    }\r\n}",
  "sourcePath": "C:\\Users\\home\\Desktop\\Other projects\\Ceybit\\Ceybit-crowdsale-contracts\\contracts\\CeybitsICO.sol",
  "compiler": {
    "name": "solc",
    "version": "0.4.23+commit.124ca40d.Emscripten.clang"
  },
  "schemaVersion": "2.0.0",
  "updatedAt": "2018-05-16T14:41:48.211Z"
}