{
  "contractName": "Pausable",
  "abi": [
    {
      "constant": true,
      "inputs": [],
      "name": "crowdsaleContract",
      "outputs": [
        {
          "name": "",
          "type": "address"
        }
      ],
      "payable": false,
      "stateMutability": "view",
      "type": "function"
    },
    {
      "constant": true,
      "inputs": [],
      "name": "paused",
      "outputs": [
        {
          "name": "",
          "type": "bool"
        }
      ],
      "payable": false,
      "stateMutability": "view",
      "type": "function"
    },
    {
      "constant": false,
      "inputs": [],
      "name": "renounceOwnership",
      "outputs": [],
      "payable": false,
      "stateMutability": "nonpayable",
      "type": "function"
    },
    {
      "constant": true,
      "inputs": [],
      "name": "owner",
      "outputs": [
        {
          "name": "",
          "type": "address"
        }
      ],
      "payable": false,
      "stateMutability": "view",
      "type": "function"
    },
    {
      "constant": false,
      "inputs": [
        {
          "name": "newOwner",
          "type": "address"
        }
      ],
      "name": "transferOwnership",
      "outputs": [],
      "payable": false,
      "stateMutability": "nonpayable",
      "type": "function"
    },
    {
      "anonymous": false,
      "inputs": [],
      "name": "Pause",
      "type": "event"
    },
    {
      "anonymous": false,
      "inputs": [],
      "name": "Unpause",
      "type": "event"
    },
    {
      "anonymous": false,
      "inputs": [
        {
          "indexed": true,
          "name": "previousOwner",
          "type": "address"
        }
      ],
      "name": "OwnershipRenounced",
      "type": "event"
    },
    {
      "anonymous": false,
      "inputs": [
        {
          "indexed": true,
          "name": "previousOwner",
          "type": "address"
        },
        {
          "indexed": true,
          "name": "newOwner",
          "type": "address"
        }
      ],
      "name": "OwnershipTransferred",
      "type": "event"
    },
    {
      "constant": false,
      "inputs": [
        {
          "name": "_contract",
          "type": "address"
        }
      ],
      "name": "addCrowdsaleContract",
      "outputs": [],
      "payable": false,
      "stateMutability": "nonpayable",
      "type": "function"
    },
    {
      "constant": false,
      "inputs": [],
      "name": "pause",
      "outputs": [],
      "payable": false,
      "stateMutability": "nonpayable",
      "type": "function"
    },
    {
      "constant": false,
      "inputs": [],
      "name": "unpause",
      "outputs": [],
      "payable": false,
      "stateMutability": "nonpayable",
      "type": "function"
    }
  ],
  "bytecode": "0x60806040526000600160156101000a81548160ff021916908315150217905550336000806101000a81548173ffffffffffffffffffffffffffffffffffffffff021916908373ffffffffffffffffffffffffffffffffffffffff1602179055506107ae8061006e6000396000f30060806040526004361061008e576000357c0100000000000000000000000000000000000000000000000000000000900463ffffffff16806331616395146100935780633f4ba83a146100ea5780635c975abb14610101578063715018a61461013057806379af8380146101475780638456cb591461018a5780638da5cb5b146101a1578063f2fde38b146101f8575b600080fd5b34801561009f57600080fd5b506100a861023b565b604051808273ffffffffffffffffffffffffffffffffffffffff1673ffffffffffffffffffffffffffffffffffffffff16815260200191505060405180910390f35b3480156100f657600080fd5b506100ff610261565b005b34801561010d57600080fd5b50610116610320565b604051808215151515815260200191505060405180910390f35b34801561013c57600080fd5b50610145610333565b005b34801561015357600080fd5b50610188600480360381019080803573ffffffffffffffffffffffffffffffffffffffff169060200190929190505050610435565b005b34801561019657600080fd5b5061019f6104f1565b005b3480156101ad57600080fd5b506101b6610608565b604051808273ffffffffffffffffffffffffffffffffffffffff1673ffffffffffffffffffffffffffffffffffffffff16815260200191505060405180910390f35b34801561020457600080fd5b50610239600480360381019080803573ffffffffffffffffffffffffffffffffffffffff16906020019092919050505061062d565b005b600160009054906101000a900473ffffffffffffffffffffffffffffffffffffffff1681565b6000809054906101000a900473ffffffffffffffffffffffffffffffffffffffff1673ffffffffffffffffffffffffffffffffffffffff163373ffffffffffffffffffffffffffffffffffffffff161415156102bc57600080fd5b600160159054906101000a900460ff1615156102d757600080fd5b6000600160156101000a81548160ff0219169083151502179055507f7805862f689e2f13df9f062ff482ad3ad112aca9e0847911ed832e158c525b3360405160405180910390a1565b600160159054906101000a900460ff1681565b6000809054906101000a900473ffffffffffffffffffffffffffffffffffffffff1673ffffffffffffffffffffffffffffffffffffffff163373ffffffffffffffffffffffffffffffffffffffff1614151561038e57600080fd5b6000809054906101000a900473ffffffffffffffffffffffffffffffffffffffff1673ffffffffffffffffffffffffffffffffffffffff167ff8df31144d9c2f0f6b59d69b8b98abd5459d07f2742c4df920b25aae33c6482060405160405180910390a260008060006101000a81548173ffffffffffffffffffffffffffffffffffffffff021916908373ffffffffffffffffffffffffffffffffffffffff160217905550565b600073ffffffffffffffffffffffffffffffffffffffff168173ffffffffffffffffffffffffffffffffffffffff161415151561047157600080fd5b60001515600160149054906101000a900460ff16151514151561049357600080fd5b80600160006101000a81548173ffffffffffffffffffffffffffffffffffffffff021916908373ffffffffffffffffffffffffffffffffffffffff16021790555060018060146101000a81548160ff02191690831515021790555050565b6000809054906101000a900473ffffffffffffffffffffffffffffffffffffffff1673ffffffffffffffffffffffffffffffffffffffff163373ffffffffffffffffffffffffffffffffffffffff1614151561054c57600080fd5b600160009054906101000a900473ffffffffffffffffffffffffffffffffffffffff1673ffffffffffffffffffffffffffffffffffffffff163373ffffffffffffffffffffffffffffffffffffffff161415156105c057600160159054906101000a900460ff161515156105bf57600080fd5b5b60018060156101000a81548160ff0219169083151502179055507f6985a02210a168e66602d3235cb6db0e70f92b3ba4d376a33c0f3d9434bff62560405160405180910390a1565b6000809054906101000a900473ffffffffffffffffffffffffffffffffffffffff1681565b6000809054906101000a900473ffffffffffffffffffffffffffffffffffffffff1673ffffffffffffffffffffffffffffffffffffffff163373ffffffffffffffffffffffffffffffffffffffff1614151561068857600080fd5b600073ffffffffffffffffffffffffffffffffffffffff168173ffffffffffffffffffffffffffffffffffffffff16141515156106c457600080fd5b8073ffffffffffffffffffffffffffffffffffffffff166000809054906101000a900473ffffffffffffffffffffffffffffffffffffffff1673ffffffffffffffffffffffffffffffffffffffff167f8be0079c531659141344cd1fd0a4f28419497f9722a3daafe3b4186f6b6457e060405160405180910390a3806000806101000a81548173ffffffffffffffffffffffffffffffffffffffff021916908373ffffffffffffffffffffffffffffffffffffffff160217905550505600a165627a7a72305820887c998bc0914444dfa6909f108775b89be9ad62750bb7c428dcf45859f3781e0029",
  "source": "pragma solidity ^0.4.23;\r\n\r\n\r\nimport \"./Ownable.sol\";\r\n\r\n/**\r\n * @title Pausable\r\n * @dev Base contract which allows children to implement an emergency stop mechanism.\r\n */\r\ncontract Pausable is Ownable {\r\n  event Pause();\r\n  event Unpause();\r\n  \r\n  address public crowdsaleContract;\r\n  \r\n  bool crowdsaleContractAdded;\r\n  bool public paused = false;\r\n\r\n    \r\n  /**\r\n     * @dev Add distribution smart contract address\r\n    */\r\n    function addCrowdsaleContract(address _contract) external {\r\n        require(_contract != address(0));\r\n        require(crowdsaleContractAdded == false);\r\n\r\n        crowdsaleContract = _contract;\r\n        crowdsaleContractAdded = true;\r\n  }\r\n    \r\n  /**\r\n   * @dev Modifier to make a function callable only when the contract is not paused.\r\n   */\r\n  modifier whenNotPaused() {\r\n      if(msg.sender != crowdsaleContract) {\r\n            require(!paused);\r\n        }\r\n    _;\r\n  }\r\n\r\n  /**\r\n   * @dev Modifier to make a function callable only when the contract is paused.\r\n   */\r\n  modifier whenPaused() {\r\n    require(paused);\r\n    _;\r\n  }\r\n\r\n  /**\r\n   * @dev called by the owner to pause, triggers stopped state\r\n   */\r\n  function pause() onlyOwner whenNotPaused public {\r\n    paused = true;\r\n    emit Pause();\r\n  }\r\n\r\n  /**\r\n   * @dev called by the owner to unpause, returns to normal state\r\n   */\r\n  function unpause() onlyOwner whenPaused public {\r\n    paused = false;\r\n    emit Unpause();\r\n  }\r\n}",
  "sourcePath": "C:\\Users\\home\\Desktop\\Other projects\\Ceybit\\Ceybit-crowdsale-contracts\\contracts\\Pausable.sol",
  "compiler": {
    "name": "solc",
    "version": "0.4.23+commit.124ca40d.Emscripten.clang"
  },
  "schemaVersion": "2.0.0",
  "updatedAt": "2018-05-15T22:20:46.716Z"
}